{
  "_format": "hh-sol-artifact-1",
  "contractName": "NrisimhadevaOracle",
  "sourceName": "contracts/NrisimhadevaOracle.sol",
  "abi": [
    {
      "inputs": [],
      "stateMutability": "nonpayable",
      "type": "constructor"
    },
    {
      "anonymous": false,
      "inputs": [
        {
          "indexed": false,
          "internalType": "uint256",
          "name": "newValue",
          "type": "uint256"
        },
        {
          "indexed": false,
          "internalType": "uint256",
          "name": "timestamp",
          "type": "uint256"
        }
      ],
      "name": "ValueUpdated",
      "type": "event"
    },
    {
      "inputs": [],
      "name": "getLatestValue",
      "outputs": [
        {
          "internalType": "uint256",
          "name": "",
          "type": "uint256"
        },
        {
          "internalType": "uint256",
          "name": "",
          "type": "uint256"
        }
      ],
      "stateMutability": "view",
      "type": "function"
    },
    {
      "inputs": [],
      "name": "lastUpdated",
      "outputs": [
        {
          "internalType": "uint256",
          "name": "",
          "type": "uint256"
        }
      ],
      "stateMutability": "view",
      "type": "function"
    },
    {
      "inputs": [],
      "name": "latestValue",
      "outputs": [
        {
          "internalType": "uint256",
          "name": "",
          "type": "uint256"
        }
      ],
      "stateMutability": "view",
      "type": "function"
    },
    {
      "inputs": [],
      "name": "owner",
      "outputs": [
        {
          "internalType": "address",
          "name": "",
          "type": "address"
        }
      ],
      "stateMutability": "view",
      "type": "function"
    },
    {
      "inputs": [
        {
          "internalType": "uint256",
          "name": "newValue",
          "type": "uint256"
        }
      ],
      "name": "updateValue",
      "outputs": [],
      "stateMutability": "nonpayable",
      "type": "function"
    }
  ],
  "bytecode": "0x608060405234801561001057600080fd5b50600080546001600160a01b031916331790556101d1806100326000396000f3fe608060405234801561001057600080fd5b50600436106100575760003560e01c80634ab5cc821461005c578063573c0bd3146100785780638da5cb5b1461008d578063d0b06f5d146100b8578063fc117b88146100c1575b600080fd5b61006560015481565b6040519081526020015b60405180910390f35b61008b610086366004610182565b6100dc565b005b6000546100a0906001600160a01b031681565b6040516001600160a01b03909116815260200161006f565b61006560025481565b6001546002546040805192835260208301919091520161006f565b6000546001600160a01b0316331461013a5760405162461bcd60e51b815260206004820152601f60248201527f4f6e6c79206f776e65722063616e20757064617465207468652076616c756500604482015260640160405180910390fd5b60018190554260028190556040805183815260208101929092527f253ac2c290fb3c37b20cfd60899ed86c0c8313905edc8ca53ec8d2b69d9919ad910160405180910390a150565b60006020828403121561019457600080fd5b503591905056fea26469706673582212207341365318c3f22abddcbe97d8f7ccf95e863f333a61dbd132ea5a48cb75227f64736f6c63430008140033",
  "linkReferences": {},
  "deployedLinkReferences": {}
}