{
  "_format": "hh-sol-artifact-1",
  "contractName": "NrisimhadevaToken",
  "sourceName": "contracts/NrisimhadevaToken.sol",
  "abi": [
    {
      "inputs": [],
      "stateMutability": "nonpayable",
      "type": "constructor"
    },
    {
      "inputs": [],
      "name": "AccessControlBadConfirmation",
      "type": "error"
    },
    {
      "inputs": [
        {
          "internalType": "address",
          "name": "account",
          "type": "address"
        },
        {
          "internalType": "bytes32",
          "name": "neededRole",
          "type": "bytes32"
        }
      ],
      "name": "AccessControlUnauthorizedAccount",
      "type": "error"
    },
    {
      "inputs": [
        {
          "internalType": "address",
          "name": "spender",
          "type": "address"
        },
        {
          "internalType": "uint256",
          "name": "allowance",
          "type": "uint256"
        },
        {
          "internalType": "uint256",
          "name": "needed",
          "type": "uint256"
        }
      ],
      "name": "ERC20InsufficientAllowance",
      "type": "error"
    },
    {
      "inputs": [
        {
          "internalType": "address",
          "name": "sender",
          "type": "address"
        },
        {
          "internalType": "uint256",
          "name": "balance",
          "type": "uint256"
        },
        {
          "internalType": "uint256",
          "name": "needed",
          "type": "uint256"
        }
      ],
      "name": "ERC20InsufficientBalance",
      "type": "error"
    },
    {
      "inputs": [
        {
          "internalType": "address",
          "name": "approver",
          "type": "address"
        }
      ],
      "name": "ERC20InvalidApprover",
      "type": "error"
    },
    {
      "inputs": [
        {
          "internalType": "address",
          "name": "receiver",
          "type": "address"
        }
      ],
      "name": "ERC20InvalidReceiver",
      "type": "error"
    },
    {
      "inputs": [
        {
          "internalType": "address",
          "name": "sender",
          "type": "address"
        }
      ],
      "name": "ERC20InvalidSender",
      "type": "error"
    },
    {
      "inputs": [
        {
          "internalType": "address",
          "name": "spender",
          "type": "address"
        }
      ],
      "name": "ERC20InvalidSpender",
      "type": "error"
    },
    {
      "anonymous": false,
      "inputs": [
        {
          "indexed": true,
          "internalType": "address",
          "name": "owner",
          "type": "address"
        },
        {
          "indexed": true,
          "internalType": "address",
          "name": "spender",
          "type": "address"
        },
        {
          "indexed": false,
          "internalType": "uint256",
          "name": "value",
          "type": "uint256"
        }
      ],
      "name": "Approval",
      "type": "event"
    },
    {
      "anonymous": false,
      "inputs": [
        {
          "indexed": true,
          "internalType": "bytes32",
          "name": "role",
          "type": "bytes32"
        },
        {
          "indexed": true,
          "internalType": "bytes32",
          "name": "previousAdminRole",
          "type": "bytes32"
        },
        {
          "indexed": true,
          "internalType": "bytes32",
          "name": "newAdminRole",
          "type": "bytes32"
        }
      ],
      "name": "RoleAdminChanged",
      "type": "event"
    },
    {
      "anonymous": false,
      "inputs": [
        {
          "indexed": true,
          "internalType": "bytes32",
          "name": "role",
          "type": "bytes32"
        },
        {
          "indexed": true,
          "internalType": "address",
          "name": "account",
          "type": "address"
        },
        {
          "indexed": true,
          "internalType": "address",
          "name": "sender",
          "type": "address"
        }
      ],
      "name": "RoleGranted",
      "type": "event"
    },
    {
      "anonymous": false,
      "inputs": [
        {
          "indexed": true,
          "internalType": "bytes32",
          "name": "role",
          "type": "bytes32"
        },
        {
          "indexed": true,
          "internalType": "address",
          "name": "account",
          "type": "address"
        },
        {
          "indexed": true,
          "internalType": "address",
          "name": "sender",
          "type": "address"
        }
      ],
      "name": "RoleRevoked",
      "type": "event"
    },
    {
      "anonymous": false,
      "inputs": [
        {
          "indexed": true,
          "internalType": "address",
          "name": "to",
          "type": "address"
        },
        {
          "indexed": false,
          "internalType": "uint256",
          "name": "amount",
          "type": "uint256"
        },
        {
          "indexed": false,
          "internalType": "string",
          "name": "transactionId",
          "type": "string"
        }
      ],
      "name": "TokensIssued",
      "type": "event"
    },
    {
      "anonymous": false,
      "inputs": [
        {
          "indexed": true,
          "internalType": "address",
          "name": "from",
          "type": "address"
        },
        {
          "indexed": false,
          "internalType": "uint256",
          "name": "amount",
          "type": "uint256"
        },
        {
          "indexed": false,
          "internalType": "string",
          "name": "pixKey",
          "type": "string"
        }
      ],
      "name": "TokensRedeemed",
      "type": "event"
    },
    {
      "anonymous": false,
      "inputs": [
        {
          "indexed": true,
          "internalType": "address",
          "name": "from",
          "type": "address"
        },
        {
          "indexed": true,
          "internalType": "address",
          "name": "to",
          "type": "address"
        },
        {
          "indexed": false,
          "internalType": "uint256",
          "name": "value",
          "type": "uint256"
        }
      ],
      "name": "Transfer",
      "type": "event"
    },
    {
      "inputs": [],
      "name": "ADMIN_ROLE",
      "outputs": [
        {
          "internalType": "bytes32",
          "name": "",
          "type": "bytes32"
        }
      ],
      "stateMutability": "view",
      "type": "function"
    },
    {
      "inputs": [],
      "name": "DEFAULT_ADMIN_ROLE",
      "outputs": [
        {
          "internalType": "bytes32",
          "name": "",
          "type": "bytes32"
        }
      ],
      "stateMutability": "view",
      "type": "function"
    },
    {
      "inputs": [],
      "name": "ORACLE_ROLE",
      "outputs": [
        {
          "internalType": "bytes32",
          "name": "",
          "type": "bytes32"
        }
      ],
      "stateMutability": "view",
      "type": "function"
    },
    {
      "inputs": [
        {
          "internalType": "address",
          "name": "oracle",
          "type": "address"
        }
      ],
      "name": "addOracle",
      "outputs": [],
      "stateMutability": "nonpayable",
      "type": "function"
    },
    {
      "inputs": [
        {
          "internalType": "address",
          "name": "owner",
          "type": "address"
        },
        {
          "internalType": "address",
          "name": "spender",
          "type": "address"
        }
      ],
      "name": "allowance",
      "outputs": [
        {
          "internalType": "uint256",
          "name": "",
          "type": "uint256"
        }
      ],
      "stateMutability": "view",
      "type": "function"
    },
    {
      "inputs": [
        {
          "internalType": "address",
          "name": "spender",
          "type": "address"
        },
        {
          "internalType": "uint256",
          "name": "value",
          "type": "uint256"
        }
      ],
      "name": "approve",
      "outputs": [
        {
          "internalType": "bool",
          "name": "",
          "type": "bool"
        }
      ],
      "stateMutability": "nonpayable",
      "type": "function"
    },
    {
      "inputs": [
        {
          "internalType": "address",
          "name": "account",
          "type": "address"
        }
      ],
      "name": "balanceOf",
      "outputs": [
        {
          "internalType": "uint256",
          "name": "",
          "type": "uint256"
        }
      ],
      "stateMutability": "view",
      "type": "function"
    },
    {
      "inputs": [],
      "name": "decimals",
      "outputs": [
        {
          "internalType": "uint8",
          "name": "",
          "type": "uint8"
        }
      ],
      "stateMutability": "view",
      "type": "function"
    },
    {
      "inputs": [
        {
          "internalType": "bytes32",
          "name": "role",
          "type": "bytes32"
        }
      ],
      "name": "getRoleAdmin",
      "outputs": [
        {
          "internalType": "bytes32",
          "name": "",
          "type": "bytes32"
        }
      ],
      "stateMutability": "view",
      "type": "function"
    },
    {
      "inputs": [
        {
          "internalType": "bytes32",
          "name": "role",
          "type": "bytes32"
        },
        {
          "internalType": "address",
          "name": "account",
          "type": "address"
        }
      ],
      "name": "grantRole",
      "outputs": [],
      "stateMutability": "nonpayable",
      "type": "function"
    },
    {
      "inputs": [
        {
          "internalType": "bytes32",
          "name": "role",
          "type": "bytes32"
        },
        {
          "internalType": "address",
          "name": "account",
          "type": "address"
        }
      ],
      "name": "hasRole",
      "outputs": [
        {
          "internalType": "bool",
          "name": "",
          "type": "bool"
        }
      ],
      "stateMutability": "view",
      "type": "function"
    },
    {
      "inputs": [
        {
          "internalType": "address",
          "name": "to",
          "type": "address"
        },
        {
          "internalType": "uint256",
          "name": "amount",
          "type": "uint256"
        },
        {
          "internalType": "string",
          "name": "transactionId",
          "type": "string"
        }
      ],
      "name": "issueTokens",
      "outputs": [],
      "stateMutability": "nonpayable",
      "type": "function"
    },
    {
      "inputs": [],
      "name": "name",
      "outputs": [
        {
          "internalType": "string",
          "name": "",
          "type": "string"
        }
      ],
      "stateMutability": "view",
      "type": "function"
    },
    {
      "inputs": [
        {
          "internalType": "address",
          "name": "",
          "type": "address"
        }
      ],
      "name": "pixKeys",
      "outputs": [
        {
          "internalType": "string",
          "name": "",
          "type": "string"
        }
      ],
      "stateMutability": "view",
      "type": "function"
    },
    {
      "inputs": [
        {
          "internalType": "uint256",
          "name": "amount",
          "type": "uint256"
        }
      ],
      "name": "redeemTokens",
      "outputs": [],
      "stateMutability": "nonpayable",
      "type": "function"
    },
    {
      "inputs": [
        {
          "internalType": "string",
          "name": "pixKey",
          "type": "string"
        }
      ],
      "name": "registerPixKey",
      "outputs": [],
      "stateMutability": "nonpayable",
      "type": "function"
    },
    {
      "inputs": [
        {
          "internalType": "bytes32",
          "name": "role",
          "type": "bytes32"
        },
        {
          "internalType": "address",
          "name": "callerConfirmation",
          "type": "address"
        }
      ],
      "name": "renounceRole",
      "outputs": [],
      "stateMutability": "nonpayable",
      "type": "function"
    },
    {
      "inputs": [
        {
          "internalType": "bytes32",
          "name": "role",
          "type": "bytes32"
        },
        {
          "internalType": "address",
          "name": "account",
          "type": "address"
        }
      ],
      "name": "revokeRole",
      "outputs": [],
      "stateMutability": "nonpayable",
      "type": "function"
    },
    {
      "inputs": [
        {
          "internalType": "bytes4",
          "name": "interfaceId",
          "type": "bytes4"
        }
      ],
      "name": "supportsInterface",
      "outputs": [
        {
          "internalType": "bool",
          "name": "",
          "type": "bool"
        }
      ],
      "stateMutability": "view",
      "type": "function"
    },
    {
      "inputs": [],
      "name": "symbol",
      "outputs": [
        {
          "internalType": "string",
          "name": "",
          "type": "string"
        }
      ],
      "stateMutability": "view",
      "type": "function"
    },
    {
      "inputs": [],
      "name": "totalSupply",
      "outputs": [
        {
          "internalType": "uint256",
          "name": "",
          "type": "uint256"
        }
      ],
      "stateMutability": "view",
      "type": "function"
    },
    {
      "inputs": [
        {
          "internalType": "address",
          "name": "to",
          "type": "address"
        },
        {
          "internalType": "uint256",
          "name": "value",
          "type": "uint256"
        }
      ],
      "name": "transfer",
      "outputs": [
        {
          "internalType": "bool",
          "name": "",
          "type": "bool"
        }
      ],
      "stateMutability": "nonpayable",
      "type": "function"
    },
    {
      "inputs": [
        {
          "internalType": "address",
          "name": "from",
          "type": "address"
        },
        {
          "internalType": "address",
          "name": "to",
          "type": "address"
        },
        {
          "internalType": "uint256",
          "name": "value",
          "type": "uint256"
        }
      ],
      "name": "transferFrom",
      "outputs": [
        {
          "internalType": "bool",
          "name": "",
          "type": "bool"
        }
      ],
      "stateMutability": "nonpayable",
      "type": "function"
    }
  ],
  "bytecode": "0x60806040523480156200001157600080fd5b5060405180604001604052806012815260200171273934b9b4b6b430b232bb30902a37b5b2b760711b8152506040518060400160405280600381526020016213959160ea1b81525081600390816200006a919062000217565b50600462000079828262000217565b506200008b91506000905033620000bf565b50620000b87fa49807205ce4d355092ef5a8a18f56e8913cf4a201fbe287825b095693c2177533620000bf565b50620002e3565b60008281526005602090815260408083206001600160a01b038516845290915281205460ff16620001685760008381526005602090815260408083206001600160a01b03861684529091529020805460ff191660011790556200011f3390565b6001600160a01b0316826001600160a01b0316847f2f8788117e7eff1d82e926ec794901d17c78024a50270940304540a733656f0d60405160405180910390a45060016200016c565b5060005b92915050565b634e487b7160e01b600052604160045260246000fd5b600181811c908216806200019d57607f821691505b602082108103620001be57634e487b7160e01b600052602260045260246000fd5b50919050565b601f8211156200021257600081815260208120601f850160051c81016020861015620001ed5750805b601f850160051c820191505b818110156200020e57828155600101620001f9565b5050505b505050565b81516001600160401b0381111562000233576200023362000172565b6200024b8162000244845462000188565b84620001c4565b602080601f8311600181146200028357600084156200026a5750858301515b600019600386901b1c1916600185901b1785556200020e565b600085815260208120601f198616915b82811015620002b45788860151825594840194600190910190840162000293565b5085821015620002d35787850151600019600388901b60f8161c191681555b5050505050600190811b01905550565b6112b980620002f36000396000f3fe608060405234801561001057600080fd5b506004361061014d5760003560e01c806370a08231116100c3578063a6e158f81161007c578063a6e158f8146102e5578063a9059cbb146102f8578063cae72baf1461030b578063d547741f1461031e578063dd62ed3e14610331578063df5dd1a51461036a57600080fd5b806370a082311461025f57806375b238fc146102885780638dc51e6b146102af57806391d14854146102c257806395d89b41146102d5578063a217fddf146102dd57600080fd5b806323b872dd1161011557806323b872dd146101df578063248a9ca3146101f25780632f2ff15d14610215578063313ce5671461022a57806336568abe1461023957806344fed5de1461024c57600080fd5b806301ffc9a71461015257806306fdde031461017a57806307e2cea51461018f578063095ea7b3146101c457806318160ddd146101d7575b600080fd5b610165610160366004610cb8565b61037d565b60405190151581526020015b60405180910390f35b6101826103b4565b6040516101719190610ce9565b6101b67f68e79a7bf1e0bc45d0a330c573bc367f9cf464fd326078812f301165fbda4ef181565b604051908152602001610171565b6101656101d2366004610d53565b610446565b6002546101b6565b6101656101ed366004610d7d565b61045e565b6101b6610200366004610db9565b60009081526005602052604090206001015490565b610228610223366004610dd2565b610482565b005b60405160128152602001610171565b610228610247366004610dd2565b6104ad565b61022861025a366004610e47565b6104e5565b6101b661026d366004610e89565b6001600160a01b031660009081526020819052604090205490565b6101b67fa49807205ce4d355092ef5a8a18f56e8913cf4a201fbe287825b095693c2177581565b6102286102bd366004610ea4565b6104ff565b6101656102d0366004610dd2565b610594565b6101826105bf565b6101b6600081565b6102286102f3366004610db9565b6105ce565b610165610306366004610d53565b6106fc565b610182610319366004610e89565b61070a565b61022861032c366004610dd2565b6107a4565b6101b661033f366004610efe565b6001600160a01b03918216600090815260016020908152604080832093909416825291909152205490565b610228610378366004610e89565b6107c9565b60006001600160e01b03198216637965db0b60e01b14806103ae57506301ffc9a760e01b6001600160e01b03198316145b92915050565b6060600380546103c390610f28565b80601f01602080910402602001604051908101604052809291908181526020018280546103ef90610f28565b801561043c5780601f106104115761010080835404028352916020019161043c565b820191906000526020600020905b81548152906001019060200180831161041f57829003601f168201915b5050505050905090565b600033610454818585610821565b5060019392505050565b60003361046c85828561082e565b6104778585856108a7565b506001949350505050565b60008281526005602052604090206001015461049d81610906565b6104a78383610913565b50505050565b6001600160a01b03811633146104d65760405163334bd91960e11b815260040160405180910390fd5b6104e082826109a7565b505050565b3360009081526006602052604090206104e0828483610fc6565b7f68e79a7bf1e0bc45d0a330c573bc367f9cf464fd326078812f301165fbda4ef161052981610906565b610548856105396012600a611181565b6105439087611190565b610a14565b846001600160a01b03167fef1431f7f67231c8f03b7a3ab99ea6ded60c39c346938574f2028c80a4272d72858585604051610585939291906111a7565b60405180910390a25050505050565b60009182526005602090815260408084206001600160a01b0393909316845291905290205460ff1690565b6060600480546103c390610f28565b60006105dc6012600a611181565b6105e69083611190565b336000908152602081905260409020549091508111156106445760405162461bcd60e51b8152602060048201526014602482015273496e73756666696369656e742062616c616e636560601b60448201526064015b60405180910390fd5b336000908152600660205260408120805461065e90610f28565b9050116106a55760405162461bcd60e51b8152602060048201526015602482015274139bc8141256081ad95e481c9959da5cdd195c9959605a1b604482015260640161063b565b6106af3382610a4a565b336000818152600660205260409081902090517f840b44fdbcb5cc554d649d4eff35e951766f31d646497b364a9cd6d6677d3e14916106f0918691906111dd565b60405180910390a25050565b6000336104548185856108a7565b6006602052600090815260409020805461072390610f28565b80601f016020809104026020016040519081016040528092919081815260200182805461074f90610f28565b801561079c5780601f106107715761010080835404028352916020019161079c565b820191906000526020600020905b81548152906001019060200180831161077f57829003601f168201915b505050505081565b6000828152600560205260409020600101546107bf81610906565b6104a783836109a7565b7fa49807205ce4d355092ef5a8a18f56e8913cf4a201fbe287825b095693c217756107f381610906565b61081d7f68e79a7bf1e0bc45d0a330c573bc367f9cf464fd326078812f301165fbda4ef183610482565b5050565b6104e08383836001610a80565b6001600160a01b038381166000908152600160209081526040808320938616835292905220546000198110156104a7578181101561089857604051637dc7a0d960e11b81526001600160a01b0384166004820152602481018290526044810183905260640161063b565b6104a784848484036000610a80565b6001600160a01b0383166108d157604051634b637e8f60e11b81526000600482015260240161063b565b6001600160a01b0382166108fb5760405163ec442f0560e01b81526000600482015260240161063b565b6104e0838383610b55565b6109108133610c7f565b50565b600061091f8383610594565b61099f5760008381526005602090815260408083206001600160a01b03861684529091529020805460ff191660011790556109573390565b6001600160a01b0316826001600160a01b0316847f2f8788117e7eff1d82e926ec794901d17c78024a50270940304540a733656f0d60405160405180910390a45060016103ae565b5060006103ae565b60006109b38383610594565b1561099f5760008381526005602090815260408083206001600160a01b0386168085529252808320805460ff1916905551339286917ff6391f5c32d9c69d2a47ea670b442974b53935d1edc7fd64eb21e047a839171b9190a45060016103ae565b6001600160a01b038216610a3e5760405163ec442f0560e01b81526000600482015260240161063b565b61081d60008383610b55565b6001600160a01b038216610a7457604051634b637e8f60e11b81526000600482015260240161063b565b61081d82600083610b55565b6001600160a01b038416610aaa5760405163e602df0560e01b81526000600482015260240161063b565b6001600160a01b038316610ad457604051634a1406b160e11b81526000600482015260240161063b565b6001600160a01b03808516600090815260016020908152604080832093871683529290522082905580156104a757826001600160a01b0316846001600160a01b03167f8c5be1e5ebec7d5bd14f71427d1e84f3dd0314c0f7b2291e5b200ac8c7c3b92584604051610b4791815260200190565b60405180910390a350505050565b6001600160a01b038316610b80578060026000828254610b759190611270565b90915550610bf29050565b6001600160a01b03831660009081526020819052604090205481811015610bd35760405163391434e360e21b81526001600160a01b0385166004820152602481018290526044810183905260640161063b565b6001600160a01b03841660009081526020819052604090209082900390555b6001600160a01b038216610c0e57600280548290039055610c2d565b6001600160a01b03821660009081526020819052604090208054820190555b816001600160a01b0316836001600160a01b03167fddf252ad1be2c89b69c2b068fc378daa952ba7f163c4a11628f55a4df523b3ef83604051610c7291815260200190565b60405180910390a3505050565b610c898282610594565b61081d5760405163e2517d3f60e01b81526001600160a01b03821660048201526024810183905260440161063b565b600060208284031215610cca57600080fd5b81356001600160e01b031981168114610ce257600080fd5b9392505050565b600060208083528351808285015260005b81811015610d1657858101830151858201604001528201610cfa565b506000604082860101526040601f19601f8301168501019250505092915050565b80356001600160a01b0381168114610d4e57600080fd5b919050565b60008060408385031215610d6657600080fd5b610d6f83610d37565b946020939093013593505050565b600080600060608486031215610d9257600080fd5b610d9b84610d37565b9250610da960208501610d37565b9150604084013590509250925092565b600060208284031215610dcb57600080fd5b5035919050565b60008060408385031215610de557600080fd5b82359150610df560208401610d37565b90509250929050565b60008083601f840112610e1057600080fd5b50813567ffffffffffffffff811115610e2857600080fd5b602083019150836020828501011115610e4057600080fd5b9250929050565b60008060208385031215610e5a57600080fd5b823567ffffffffffffffff811115610e7157600080fd5b610e7d85828601610dfe565b90969095509350505050565b600060208284031215610e9b57600080fd5b610ce282610d37565b60008060008060608587031215610eba57600080fd5b610ec385610d37565b935060208501359250604085013567ffffffffffffffff811115610ee657600080fd5b610ef287828801610dfe565b95989497509550505050565b60008060408385031215610f1157600080fd5b610f1a83610d37565b9150610df560208401610d37565b600181811c90821680610f3c57607f821691505b602082108103610f5c57634e487b7160e01b600052602260045260246000fd5b50919050565b634e487b7160e01b600052604160045260246000fd5b601f8211156104e057600081815260208120601f850160051c81016020861015610f9f5750805b601f850160051c820191505b81811015610fbe57828155600101610fab565b505050505050565b67ffffffffffffffff831115610fde57610fde610f62565b610ff283610fec8354610f28565b83610f78565b6000601f841160018114611026576000851561100e5750838201355b600019600387901b1c1916600186901b178355611080565b600083815260209020601f19861690835b828110156110575786850135825560209485019460019092019101611037565b50868210156110745760001960f88860031b161c19848701351681555b505060018560011b0183555b5050505050565b634e487b7160e01b600052601160045260246000fd5b600181815b808511156110d85781600019048211156110be576110be611087565b808516156110cb57918102915b93841c93908002906110a2565b509250929050565b6000826110ef575060016103ae565b816110fc575060006103ae565b8160018114611112576002811461111c57611138565b60019150506103ae565b60ff84111561112d5761112d611087565b50506001821b6103ae565b5060208310610133831016604e8410600b841016171561115b575081810a6103ae565b611165838361109d565b806000190482111561117957611179611087565b029392505050565b6000610ce260ff8416836110e0565b80820281158282048414176103ae576103ae611087565b83815260406020820152816040820152818360608301376000818301606090810191909152601f909201601f1916010192915050565b82815260006020604081840152600084546111f781610f28565b8060408701526060600180841660008114611219576001811461123357611261565b60ff1985168984015283151560051b890183019550611261565b896000528660002060005b858110156112595781548b820186015290830190880161123e565b8a0184019650505b50939998505050505050505050565b808201808211156103ae576103ae61108756fea26469706673582212200609d04cdfdfce610993aaf5a1ff5d0606cf363bd1c7a3856d54caf64dbcfd9164736f6c63430008140033",
  "linkReferences": {},
  "deployedLinkReferences": {}
}