{
  "_format": "hh-sol-artifact-1",
  "contractName": "NrisimhadevaToken",
  "sourceName": "contracts/NrisimhadevaToken.sol",
  "abi": [
    {
      "inputs": [],
      "stateMutability": "nonpayable",
      "type": "constructor"
    },
    {
      "inputs": [],
      "name": "AccessControlBadConfirmation",
      "type": "error"
    },
    {
      "inputs": [
        {
          "internalType": "address",
          "name": "account",
          "type": "address"
        },
        {
          "internalType": "bytes32",
          "name": "neededRole",
          "type": "bytes32"
        }
      ],
      "name": "AccessControlUnauthorizedAccount",
      "type": "error"
    },
    {
      "inputs": [
        {
          "internalType": "address",
          "name": "spender",
          "type": "address"
        },
        {
          "internalType": "uint256",
          "name": "allowance",
          "type": "uint256"
        },
        {
          "internalType": "uint256",
          "name": "needed",
          "type": "uint256"
        }
      ],
      "name": "ERC20InsufficientAllowance",
      "type": "error"
    },
    {
      "inputs": [
        {
          "internalType": "address",
          "name": "sender",
          "type": "address"
        },
        {
          "internalType": "uint256",
          "name": "balance",
          "type": "uint256"
        },
        {
          "internalType": "uint256",
          "name": "needed",
          "type": "uint256"
        }
      ],
      "name": "ERC20InsufficientBalance",
      "type": "error"
    },
    {
      "inputs": [
        {
          "internalType": "address",
          "name": "approver",
          "type": "address"
        }
      ],
      "name": "ERC20InvalidApprover",
      "type": "error"
    },
    {
      "inputs": [
        {
          "internalType": "address",
          "name": "receiver",
          "type": "address"
        }
      ],
      "name": "ERC20InvalidReceiver",
      "type": "error"
    },
    {
      "inputs": [
        {
          "internalType": "address",
          "name": "sender",
          "type": "address"
        }
      ],
      "name": "ERC20InvalidSender",
      "type": "error"
    },
    {
      "inputs": [
        {
          "internalType": "address",
          "name": "spender",
          "type": "address"
        }
      ],
      "name": "ERC20InvalidSpender",
      "type": "error"
    },
    {
      "anonymous": false,
      "inputs": [
        {
          "indexed": true,
          "internalType": "address",
          "name": "owner",
          "type": "address"
        },
        {
          "indexed": true,
          "internalType": "address",
          "name": "spender",
          "type": "address"
        },
        {
          "indexed": false,
          "internalType": "uint256",
          "name": "value",
          "type": "uint256"
        }
      ],
      "name": "Approval",
      "type": "event"
    },
    {
      "anonymous": false,
      "inputs": [
        {
          "indexed": true,
          "internalType": "bytes32",
          "name": "role",
          "type": "bytes32"
        },
        {
          "indexed": true,
          "internalType": "bytes32",
          "name": "previousAdminRole",
          "type": "bytes32"
        },
        {
          "indexed": true,
          "internalType": "bytes32",
          "name": "newAdminRole",
          "type": "bytes32"
        }
      ],
      "name": "RoleAdminChanged",
      "type": "event"
    },
    {
      "anonymous": false,
      "inputs": [
        {
          "indexed": true,
          "internalType": "bytes32",
          "name": "role",
          "type": "bytes32"
        },
        {
          "indexed": true,
          "internalType": "address",
          "name": "account",
          "type": "address"
        },
        {
          "indexed": true,
          "internalType": "address",
          "name": "sender",
          "type": "address"
        }
      ],
      "name": "RoleGranted",
      "type": "event"
    },
    {
      "anonymous": false,
      "inputs": [
        {
          "indexed": true,
          "internalType": "bytes32",
          "name": "role",
          "type": "bytes32"
        },
        {
          "indexed": true,
          "internalType": "address",
          "name": "account",
          "type": "address"
        },
        {
          "indexed": true,
          "internalType": "address",
          "name": "sender",
          "type": "address"
        }
      ],
      "name": "RoleRevoked",
      "type": "event"
    },
    {
      "anonymous": false,
      "inputs": [
        {
          "indexed": true,
          "internalType": "address",
          "name": "to",
          "type": "address"
        },
        {
          "indexed": false,
          "internalType": "uint256",
          "name": "amount",
          "type": "uint256"
        },
        {
          "indexed": false,
          "internalType": "string",
          "name": "transactionId",
          "type": "string"
        }
      ],
      "name": "TokensIssued",
      "type": "event"
    },
    {
      "anonymous": false,
      "inputs": [
        {
          "indexed": true,
          "internalType": "address",
          "name": "from",
          "type": "address"
        },
        {
          "indexed": false,
          "internalType": "uint256",
          "name": "amount",
          "type": "uint256"
        },
        {
          "indexed": false,
          "internalType": "string",
          "name": "pixKey",
          "type": "string"
        }
      ],
      "name": "TokensRedeemed",
      "type": "event"
    },
    {
      "anonymous": false,
      "inputs": [
        {
          "indexed": true,
          "internalType": "address",
          "name": "from",
          "type": "address"
        },
        {
          "indexed": true,
          "internalType": "address",
          "name": "to",
          "type": "address"
        },
        {
          "indexed": false,
          "internalType": "uint256",
          "name": "value",
          "type": "uint256"
        }
      ],
      "name": "Transfer",
      "type": "event"
    },
    {
      "inputs": [],
      "name": "ADMIN_ROLE",
      "outputs": [
        {
          "internalType": "bytes32",
          "name": "",
          "type": "bytes32"
        }
      ],
      "stateMutability": "view",
      "type": "function"
    },
    {
      "inputs": [],
      "name": "DEFAULT_ADMIN_ROLE",
      "outputs": [
        {
          "internalType": "bytes32",
          "name": "",
          "type": "bytes32"
        }
      ],
      "stateMutability": "view",
      "type": "function"
    },
    {
      "inputs": [],
      "name": "ORACLE_ROLE",
      "outputs": [
        {
          "internalType": "bytes32",
          "name": "",
          "type": "bytes32"
        }
      ],
      "stateMutability": "view",
      "type": "function"
    },
    {
      "inputs": [
        {
          "internalType": "address",
          "name": "oracle",
          "type": "address"
        }
      ],
      "name": "addOracle",
      "outputs": [],
      "stateMutability": "nonpayable",
      "type": "function"
    },
    {
      "inputs": [
        {
          "internalType": "address",
          "name": "owner",
          "type": "address"
        },
        {
          "internalType": "address",
          "name": "spender",
          "type": "address"
        }
      ],
      "name": "allowance",
      "outputs": [
        {
          "internalType": "uint256",
          "name": "",
          "type": "uint256"
        }
      ],
      "stateMutability": "view",
      "type": "function"
    },
    {
      "inputs": [
        {
          "internalType": "address",
          "name": "spender",
          "type": "address"
        },
        {
          "internalType": "uint256",
          "name": "value",
          "type": "uint256"
        }
      ],
      "name": "approve",
      "outputs": [
        {
          "internalType": "bool",
          "name": "",
          "type": "bool"
        }
      ],
      "stateMutability": "nonpayable",
      "type": "function"
    },
    {
      "inputs": [
        {
          "internalType": "address",
          "name": "account",
          "type": "address"
        }
      ],
      "name": "balanceOf",
      "outputs": [
        {
          "internalType": "uint256",
          "name": "",
          "type": "uint256"
        }
      ],
      "stateMutability": "view",
      "type": "function"
    },
    {
      "inputs": [],
      "name": "decimals",
      "outputs": [
        {
          "internalType": "uint8",
          "name": "",
          "type": "uint8"
        }
      ],
      "stateMutability": "view",
      "type": "function"
    },
    {
      "inputs": [
        {
          "internalType": "bytes32",
          "name": "role",
          "type": "bytes32"
        }
      ],
      "name": "getRoleAdmin",
      "outputs": [
        {
          "internalType": "bytes32",
          "name": "",
          "type": "bytes32"
        }
      ],
      "stateMutability": "view",
      "type": "function"
    },
    {
      "inputs": [
        {
          "internalType": "bytes32",
          "name": "role",
          "type": "bytes32"
        },
        {
          "internalType": "address",
          "name": "account",
          "type": "address"
        }
      ],
      "name": "grantRole",
      "outputs": [],
      "stateMutability": "nonpayable",
      "type": "function"
    },
    {
      "inputs": [
        {
          "internalType": "bytes32",
          "name": "role",
          "type": "bytes32"
        },
        {
          "internalType": "address",
          "name": "account",
          "type": "address"
        }
      ],
      "name": "hasRole",
      "outputs": [
        {
          "internalType": "bool",
          "name": "",
          "type": "bool"
        }
      ],
      "stateMutability": "view",
      "type": "function"
    },
    {
      "inputs": [
        {
          "internalType": "address",
          "name": "to",
          "type": "address"
        },
        {
          "internalType": "uint256",
          "name": "amount",
          "type": "uint256"
        },
        {
          "internalType": "string",
          "name": "transactionId",
          "type": "string"
        }
      ],
      "name": "issueTokens",
      "outputs": [],
      "stateMutability": "nonpayable",
      "type": "function"
    },
    {
      "inputs": [],
      "name": "name",
      "outputs": [
        {
          "internalType": "string",
          "name": "",
          "type": "string"
        }
      ],
      "stateMutability": "view",
      "type": "function"
    },
    {
      "inputs": [
        {
          "internalType": "address",
          "name": "",
          "type": "address"
        }
      ],
      "name": "pixKeys",
      "outputs": [
        {
          "internalType": "string",
          "name": "",
          "type": "string"
        }
      ],
      "stateMutability": "view",
      "type": "function"
    },
    {
      "inputs": [
        {
          "internalType": "uint256",
          "name": "amount",
          "type": "uint256"
        }
      ],
      "name": "redeemTokens",
      "outputs": [],
      "stateMutability": "nonpayable",
      "type": "function"
    },
    {
      "inputs": [
        {
          "internalType": "string",
          "name": "pixKey",
          "type": "string"
        }
      ],
      "name": "registerPixKey",
      "outputs": [],
      "stateMutability": "nonpayable",
      "type": "function"
    },
    {
      "inputs": [
        {
          "internalType": "bytes32",
          "name": "role",
          "type": "bytes32"
        },
        {
          "internalType": "address",
          "name": "callerConfirmation",
          "type": "address"
        }
      ],
      "name": "renounceRole",
      "outputs": [],
      "stateMutability": "nonpayable",
      "type": "function"
    },
    {
      "inputs": [
        {
          "internalType": "bytes32",
          "name": "role",
          "type": "bytes32"
        },
        {
          "internalType": "address",
          "name": "account",
          "type": "address"
        }
      ],
      "name": "revokeRole",
      "outputs": [],
      "stateMutability": "nonpayable",
      "type": "function"
    },
    {
      "inputs": [
        {
          "internalType": "bytes4",
          "name": "interfaceId",
          "type": "bytes4"
        }
      ],
      "name": "supportsInterface",
      "outputs": [
        {
          "internalType": "bool",
          "name": "",
          "type": "bool"
        }
      ],
      "stateMutability": "view",
      "type": "function"
    },
    {
      "inputs": [],
      "name": "symbol",
      "outputs": [
        {
          "internalType": "string",
          "name": "",
          "type": "string"
        }
      ],
      "stateMutability": "view",
      "type": "function"
    },
    {
      "inputs": [],
      "name": "totalSupply",
      "outputs": [
        {
          "internalType": "uint256",
          "name": "",
          "type": "uint256"
        }
      ],
      "stateMutability": "view",
      "type": "function"
    },
    {
      "inputs": [
        {
          "internalType": "address",
          "name": "to",
          "type": "address"
        },
        {
          "internalType": "uint256",
          "name": "value",
          "type": "uint256"
        }
      ],
      "name": "transfer",
      "outputs": [
        {
          "internalType": "bool",
          "name": "",
          "type": "bool"
        }
      ],
      "stateMutability": "nonpayable",
      "type": "function"
    },
    {
      "inputs": [
        {
          "internalType": "address",
          "name": "from",
          "type": "address"
        },
        {
          "internalType": "address",
          "name": "to",
          "type": "address"
        },
        {
          "internalType": "uint256",
          "name": "value",
          "type": "uint256"
        }
      ],
      "name": "transferFrom",
      "outputs": [
        {
          "internalType": "bool",
          "name": "",
          "type": "bool"
        }
      ],
      "stateMutability": "nonpayable",
      "type": "function"
    }
  ],
  "bytecode": "0x60806040523480156200001157600080fd5b5060405180604001604052806012815260200171273934b9b4b6b430b232bb30902a37b5b2b760711b8152506040518060400160405280600381526020016213959160ea1b81525081600390816200006a9190620003b4565b506004620000798282620003b4565b506200008b91506000905033620000e7565b50620000b87fa49807205ce4d355092ef5a8a18f56e8913cf4a201fbe287825b095693c2177533620000e7565b50620000e133620000cc6012600a62000593565b620000db90620f4240620005ab565b6200019a565b620005db565b60008281526005602090815260408083206001600160a01b038516845290915281205460ff16620001905760008381526005602090815260408083206001600160a01b03861684529091529020805460ff19166001179055620001473390565b6001600160a01b0316826001600160a01b0316847f2f8788117e7eff1d82e926ec794901d17c78024a50270940304540a733656f0d60405160405180910390a450600162000194565b5060005b92915050565b6001600160a01b038216620001ca5760405163ec442f0560e01b8152600060048201526024015b60405180910390fd5b620001d860008383620001dc565b5050565b6001600160a01b0383166200020b578060026000828254620001ff9190620005c5565b909155506200027f9050565b6001600160a01b03831660009081526020819052604090205481811015620002605760405163391434e360e21b81526001600160a01b03851660048201526024810182905260448101839052606401620001c1565b6001600160a01b03841660009081526020819052604090209082900390555b6001600160a01b0382166200029d57600280548290039055620002bc565b6001600160a01b03821660009081526020819052604090208054820190555b816001600160a01b0316836001600160a01b03167fddf252ad1be2c89b69c2b068fc378daa952ba7f163c4a11628f55a4df523b3ef836040516200030291815260200190565b60405180910390a3505050565b634e487b7160e01b600052604160045260246000fd5b600181811c908216806200033a57607f821691505b6020821081036200035b57634e487b7160e01b600052602260045260246000fd5b50919050565b601f821115620003af57600081815260208120601f850160051c810160208610156200038a5750805b601f850160051c820191505b81811015620003ab5782815560010162000396565b5050505b505050565b81516001600160401b03811115620003d057620003d06200030f565b620003e881620003e1845462000325565b8462000361565b602080601f831160018114620004205760008415620004075750858301515b600019600386901b1c1916600185901b178555620003ab565b600085815260208120601f198616915b82811015620004515788860151825594840194600190910190840162000430565b5085821015620004705787850151600019600388901b60f8161c191681555b5050505050600190811b01905550565b634e487b7160e01b600052601160045260246000fd5b600181815b80851115620004d7578160001904821115620004bb57620004bb62000480565b80851615620004c957918102915b93841c93908002906200049b565b509250929050565b600082620004f05750600162000194565b81620004ff5750600062000194565b8160018114620005185760028114620005235762000543565b600191505062000194565b60ff84111562000537576200053762000480565b50506001821b62000194565b5060208310610133831016604e8410600b841016171562000568575081810a62000194565b62000574838362000496565b80600019048211156200058b576200058b62000480565b029392505050565b6000620005a460ff841683620004df565b9392505050565b808202811582820484141762000194576200019462000480565b8082018082111562000194576200019462000480565b6112d780620005eb6000396000f3fe608060405234801561001057600080fd5b506004361061014d5760003560e01c806370a08231116100c3578063a6e158f81161007c578063a6e158f8146102e5578063a9059cbb146102f8578063cae72baf1461030b578063d547741f1461031e578063dd62ed3e14610331578063df5dd1a51461036a57600080fd5b806370a082311461025f57806375b238fc146102885780638dc51e6b146102af57806391d14854146102c257806395d89b41146102d5578063a217fddf146102dd57600080fd5b806323b872dd1161011557806323b872dd146101df578063248a9ca3146101f25780632f2ff15d14610215578063313ce5671461022a57806336568abe1461023957806344fed5de1461024c57600080fd5b806301ffc9a71461015257806306fdde031461017a57806307e2cea51461018f578063095ea7b3146101c457806318160ddd146101d7575b600080fd5b610165610160366004610cb4565b61037d565b60405190151581526020015b60405180910390f35b6101826103b4565b6040516101719190610ce5565b6101b67f68e79a7bf1e0bc45d0a330c573bc367f9cf464fd326078812f301165fbda4ef181565b604051908152602001610171565b6101656101d2366004610d4f565b610446565b6002546101b6565b6101656101ed366004610d79565b61045e565b6101b6610200366004610db5565b60009081526005602052604090206001015490565b610228610223366004610dce565b610482565b005b60405160128152602001610171565b610228610247366004610dce565b6104ad565b61022861025a366004610e43565b6104e5565b6101b661026d366004610e85565b6001600160a01b031660009081526020819052604090205490565b6101b67fa49807205ce4d355092ef5a8a18f56e8913cf4a201fbe287825b095693c2177581565b6102286102bd366004610ea0565b6104ff565b6101656102d0366004610dce565b610594565b6101826105bf565b6101b6600081565b6102286102f3366004610db5565b6105ce565b610165610306366004610d4f565b6106f8565b610182610319366004610e85565b610706565b61022861032c366004610dce565b6107a0565b6101b661033f366004610efa565b6001600160a01b03918216600090815260016020908152604080832093909416825291909152205490565b610228610378366004610e85565b6107c5565b60006001600160e01b03198216637965db0b60e01b14806103ae57506301ffc9a760e01b6001600160e01b03198316145b92915050565b6060600380546103c390610f24565b80601f01602080910402602001604051908101604052809291908181526020018280546103ef90610f24565b801561043c5780601f106104115761010080835404028352916020019161043c565b820191906000526020600020905b81548152906001019060200180831161041f57829003601f168201915b5050505050905090565b60003361045481858561081d565b5060019392505050565b60003361046c85828561082a565b6104778585856108a3565b506001949350505050565b60008281526005602052604090206001015461049d81610902565b6104a7838361090f565b50505050565b6001600160a01b03811633146104d65760405163334bd91960e11b815260040160405180910390fd5b6104e082826109a3565b505050565b3360009081526006602052604090206104e0828483610fc2565b7f68e79a7bf1e0bc45d0a330c573bc367f9cf464fd326078812f301165fbda4ef161052981610902565b610548856105396012600a61117d565b610543908761118c565b610a10565b846001600160a01b03167fef1431f7f67231c8f03b7a3ab99ea6ded60c39c346938574f2028c80a4272d72858585604051610585939291906111a3565b60405180910390a25050505050565b60009182526005602090815260408084206001600160a01b0393909316845291905290205460ff1690565b6060600480546103c390610f24565b33600090815260208190526040902054819081111561062b5760405162461bcd60e51b8152602060048201526014602482015273496e73756666696369656e742062616c616e636560601b60448201526064015b60405180910390fd5b336000908152600660205260408120805461064590610f24565b90501161068c5760405162461bcd60e51b8152602060048201526015602482015274139bc8141256081ad95e481c9959da5cdd195c9959605a1b6044820152606401610622565b6106963382610a46565b337f840b44fdbcb5cc554d649d4eff35e951766f31d646497b364a9cd6d6677d3e146106c46012600a61117d565b6106ce90846111d9565b336000908152600660205260409081902090516106ec9291906111fb565b60405180910390a25050565b6000336104548185856108a3565b6006602052600090815260409020805461071f90610f24565b80601f016020809104026020016040519081016040528092919081815260200182805461074b90610f24565b80156107985780601f1061076d57610100808354040283529160200191610798565b820191906000526020600020905b81548152906001019060200180831161077b57829003601f168201915b505050505081565b6000828152600560205260409020600101546107bb81610902565b6104a783836109a3565b7fa49807205ce4d355092ef5a8a18f56e8913cf4a201fbe287825b095693c217756107ef81610902565b6108197f68e79a7bf1e0bc45d0a330c573bc367f9cf464fd326078812f301165fbda4ef183610482565b5050565b6104e08383836001610a7c565b6001600160a01b038381166000908152600160209081526040808320938616835292905220546000198110156104a7578181101561089457604051637dc7a0d960e11b81526001600160a01b03841660048201526024810182905260448101839052606401610622565b6104a784848484036000610a7c565b6001600160a01b0383166108cd57604051634b637e8f60e11b815260006004820152602401610622565b6001600160a01b0382166108f75760405163ec442f0560e01b815260006004820152602401610622565b6104e0838383610b51565b61090c8133610c7b565b50565b600061091b8383610594565b61099b5760008381526005602090815260408083206001600160a01b03861684529091529020805460ff191660011790556109533390565b6001600160a01b0316826001600160a01b0316847f2f8788117e7eff1d82e926ec794901d17c78024a50270940304540a733656f0d60405160405180910390a45060016103ae565b5060006103ae565b60006109af8383610594565b1561099b5760008381526005602090815260408083206001600160a01b0386168085529252808320805460ff1916905551339286917ff6391f5c32d9c69d2a47ea670b442974b53935d1edc7fd64eb21e047a839171b9190a45060016103ae565b6001600160a01b038216610a3a5760405163ec442f0560e01b815260006004820152602401610622565b61081960008383610b51565b6001600160a01b038216610a7057604051634b637e8f60e11b815260006004820152602401610622565b61081982600083610b51565b6001600160a01b038416610aa65760405163e602df0560e01b815260006004820152602401610622565b6001600160a01b038316610ad057604051634a1406b160e11b815260006004820152602401610622565b6001600160a01b03808516600090815260016020908152604080832093871683529290522082905580156104a757826001600160a01b0316846001600160a01b03167f8c5be1e5ebec7d5bd14f71427d1e84f3dd0314c0f7b2291e5b200ac8c7c3b92584604051610b4391815260200190565b60405180910390a350505050565b6001600160a01b038316610b7c578060026000828254610b71919061128e565b90915550610bee9050565b6001600160a01b03831660009081526020819052604090205481811015610bcf5760405163391434e360e21b81526001600160a01b03851660048201526024810182905260448101839052606401610622565b6001600160a01b03841660009081526020819052604090209082900390555b6001600160a01b038216610c0a57600280548290039055610c29565b6001600160a01b03821660009081526020819052604090208054820190555b816001600160a01b0316836001600160a01b03167fddf252ad1be2c89b69c2b068fc378daa952ba7f163c4a11628f55a4df523b3ef83604051610c6e91815260200190565b60405180910390a3505050565b610c858282610594565b6108195760405163e2517d3f60e01b81526001600160a01b038216600482015260248101839052604401610622565b600060208284031215610cc657600080fd5b81356001600160e01b031981168114610cde57600080fd5b9392505050565b600060208083528351808285015260005b81811015610d1257858101830151858201604001528201610cf6565b506000604082860101526040601f19601f8301168501019250505092915050565b80356001600160a01b0381168114610d4a57600080fd5b919050565b60008060408385031215610d6257600080fd5b610d6b83610d33565b946020939093013593505050565b600080600060608486031215610d8e57600080fd5b610d9784610d33565b9250610da560208501610d33565b9150604084013590509250925092565b600060208284031215610dc757600080fd5b5035919050565b60008060408385031215610de157600080fd5b82359150610df160208401610d33565b90509250929050565b60008083601f840112610e0c57600080fd5b50813567ffffffffffffffff811115610e2457600080fd5b602083019150836020828501011115610e3c57600080fd5b9250929050565b60008060208385031215610e5657600080fd5b823567ffffffffffffffff811115610e6d57600080fd5b610e7985828601610dfa565b90969095509350505050565b600060208284031215610e9757600080fd5b610cde82610d33565b60008060008060608587031215610eb657600080fd5b610ebf85610d33565b935060208501359250604085013567ffffffffffffffff811115610ee257600080fd5b610eee87828801610dfa565b95989497509550505050565b60008060408385031215610f0d57600080fd5b610f1683610d33565b9150610df160208401610d33565b600181811c90821680610f3857607f821691505b602082108103610f5857634e487b7160e01b600052602260045260246000fd5b50919050565b634e487b7160e01b600052604160045260246000fd5b601f8211156104e057600081815260208120601f850160051c81016020861015610f9b5750805b601f850160051c820191505b81811015610fba57828155600101610fa7565b505050505050565b67ffffffffffffffff831115610fda57610fda610f5e565b610fee83610fe88354610f24565b83610f74565b6000601f841160018114611022576000851561100a5750838201355b600019600387901b1c1916600186901b17835561107c565b600083815260209020601f19861690835b828110156110535786850135825560209485019460019092019101611033565b50868210156110705760001960f88860031b161c19848701351681555b505060018560011b0183555b5050505050565b634e487b7160e01b600052601160045260246000fd5b600181815b808511156110d45781600019048211156110ba576110ba611083565b808516156110c757918102915b93841c939080029061109e565b509250929050565b6000826110eb575060016103ae565b816110f8575060006103ae565b816001811461110e576002811461111857611134565b60019150506103ae565b60ff84111561112957611129611083565b50506001821b6103ae565b5060208310610133831016604e8410600b8410161715611157575081810a6103ae565b6111618383611099565b806000190482111561117557611175611083565b029392505050565b6000610cde60ff8416836110dc565b80820281158282048414176103ae576103ae611083565b83815260406020820152816040820152818360608301376000818301606090810191909152601f909201601f1916010192915050565b6000826111f657634e487b7160e01b600052601260045260246000fd5b500490565b828152600060206040818401526000845461121581610f24565b806040870152606060018084166000811461123757600181146112515761127f565b60ff1985168984015283151560051b89018301955061127f565b896000528660002060005b858110156112775781548b820186015290830190880161125c565b8a0184019650505b50939998505050505050505050565b808201808211156103ae576103ae61108356fea26469706673582212200422c702594922e34802fa69ddddf2a42c5aade64a6b6288ef1ac1dc1102c12064736f6c63430008140033",
  "linkReferences": {},
  "deployedLinkReferences": {}
}